:020000040800F2
:100000000010002031150008710400087304000876
:1000100000000000000000000000000000000000E0
:10002000000000000000000000000000750400084F
:1000300000000000000000007704000879040008B8
:100040008115000881150008811500088115000838
:1000500081150008810400080505000875050008E1
:1000600000000000811500088115000881150008B6
:100070008115000881150008811500088115000808
:100080008115000800000000000000008115000834
:100090000000000081150008811500088115000886
:1000A0000000000081150008000000008115000814
:1000B0000000000000000000000000000000000040
:1000C00010B5064C2378002B07D1054B002B02D02E
:1000D000044800E000BF0123237010BD7000002021
:1000E000000000001C1E0008044B10B5002B03D0BC
:1000F0000349044800E000BF10BDC04600000000F6
:10010000740000201C1E0008002243088B4274D398
:1001100003098B425FD3030A8B4244D3030B8B4208
:1001200028D3030C8B420DD3FF22090212BA030C11
:100130008B4202D31212090265D0030B8B4219D3F2
:1001400000E0090AC30B8B4201D3CB03C01A524112
:10015000830B8B4201D38B03C01A5241430B8B425A
:1001600001D34B03C01A5241030B8B4201D30B0343
:10017000C01A5241C30A8B4201D3CB02C01A52416A
:10018000830A8B4201D38B02C01A5241430A8B422D
:1001900001D34B02C01A5241030A8B4201D30B0216
:1001A000C01A5241CDD2C3098B4201D3CB01C01A30
:1001B000524183098B4201D38B01C01A524143093A
:1001C0008B4201D34B01C01A524103098B4201D328
:1001D0000B01C01A5241C3088B4201D3CB00C01A95
:1001E000524183088B4201D38B00C01A524143080D
:1001F0008B4201D34B00C01A5241411A00D2014632
:10020000524110467047FFE701B5002000F006F8A4
:1002100002BDC0460029F7D076E770477047C04658
:1002200030B589B00822002106A801F0D5F9224B8B
:1002300059698020C003014359615A690240019203
:10024000019A5A69802189020A435A615B690B400D
:100250000293029B09230393C4239B030493012568
:1002600005959024E40503A9200000F06DFA102301
:10027000039384239B030493059503A9200000F0B6
:1002800063FA00220021052000F004FA052000F0A6
:1002900033FA00220021062000F0FCF9062000F0CD
:1002A0002BFA00220021072000F0F4F9072000F0CB
:1002B00023FA09B030BDC0460010024072B6FEE716
:1002C00010B50B480B4B0360E1235B024360002336
:1002D0008360C36003610C2242618361C361036276
:1002E000436201F0EFF8002800D110BDFFF7E6FFF0
:1002F000800100200038014000B595B02C2200217B
:1003000009A801F069F91022002104A801F064F99C
:1003100010220021684601F05FF902230893013B97
:100320000B930F330C9308A800F0DCFA002816D1C9
:10033000072304930023059306930793002104A841
:1003400000F054FD00280CD10123009300230293F8
:10035000684600F0F9FD002805D115B000BDFFF793
:10036000ADFFFFF7ABFFFFF7A9FF000010B500F0EE
:100370005DF9FFF7C1FFFFF753FFFFF7A1FF9023E0
:10038000DB051A6901231340920802210A40134336
:100390000A4A13600A4B1B680A4C0B4A32212000A0
:1003A00001F022F9094B186082B214232100084899
:1003B00000F0D8FF642000F05BF9EBE7A400002018
:1003C0008C000020B40000206C1E0008AC0000204F
:1003D0008001002082B00A4B996901221143996182
:1003E00099690A400092009ADA69802149050A4316
:1003F000DA61DB690B400193019B02B07047C04694
:100400000010024010B588B004001422002103A897
:1004100001F0E2F82268134B9A4201D008B010BDF7
:10042000114B99698020C001014399619A6902408A
:100430000192019A5A69802189020A435A615B69D3
:100440000B400293029B094B039302230493013355
:100450000693023B0793902003A9C00500F074F9AE
:10046000DCE7C04600380140001002400480000074
:10047000FEE7FEE77047704710B500F0E7F810BDE3
:1004800010B59023DB051A6901211140920802235F
:1004900013400B43184A1360012B0FD0002B03D1DC
:1004A000164A1268012A14D0032B19D0022B1ED031
:1004B000124A1360012000F007FA10BD0F4A1268BB
:1004C000002AEBD10E490A6801320A600B4A136018
:1004D000F0E70B490A68013A0A60084A1360E9E745
:1004E000064A1268022AE1D1044A1360E2E7034A8D
:1004F0001268032ADCD1F7E7B0000020A400002036
:100500008C00002010B59023DB051A6901211140F1
:10051000920802231A401143144A116002290FD095
:10052000002903D1124A1268022A10D0012911D0E1
:10053000032916D00E4A1160082000F0C5F910BD3D
:100540000B4A1268002AEBD1094A1160F4E7084A05
:100550001160F1E7064A1268032AE9D1044A1160E2
:10056000EAE7034A1268012AE4D1F7E7B000002065
:10057000A400002010B5084B1A7801321A705B787D
:10058000002B05D1054B00221A60034B01325A7033
:10059000102000F099F910BD900000208C00002080
:1005A00010B503000B4A1268002A08D0094A1068E7
:1005B000C3186A46934206D8064A136010BD054A1E
:1005C00005491160F2E700F0DDFF0C230360012014
:1005D0004042F3E794000020100200207047000022
:1005E00010B504000F4B1978FA208000FFF78CFD3E
:1005F00001000D4B1868FFF787FD00F089F800280F
:100600000DD1032C01D901200AE001300022210084
:10061000404200F03FF8034B5C60002000E0012006
:1006200010BDC046040000200000002010B5064A9E
:10063000136810210B4313600020FFF7D1FFFFF771
:10064000C9FE002010BDC04600200240034A1168C8
:10065000034B1B785B1813607047C04604020020F0
:1006600004000020014B18687047C04604020020B7
:1006700070B50400FFF7F6FF0500631C02D0044BC1
:100680001B78E418FFF7EEFF401BA042FAD370BDC1
:100690000400002070B5002811DB8308144DC0331E
:1006A0009B005C5903221040C000FC3216008640BB
:1006B000B44389010A40824022435A5170BDC0B2FE
:1006C0000F230340083B9B0806339B00094A9446CE
:1006D00063445D6803242040C000FF22140084406E
:1006E000A54389011140814029435960E6E7C0468E
:1006F00000E100E000ED00E0002805DB1F231840CA
:100700001E3B8340014A13607047C04600E100E091
:1007100001380A4B98420FD8094A50600948036AC9
:100720001B021B0AC02109060B43036200239360CE
:1007300007331360002070470120FCE7FFFFFF0034
:1007400010E000E000ED00E0F0B583B0002357E0DA
:1007500085685F000326BE40B5432E00CD68BD40CE
:10076000354385604568A5434C682609012434401B
:100770009C402C43446051E0DD080835AD002E5804
:1007800005341C40A4000F27A740BE430F69A740B3
:100790003C0034432C5055E0022600E00026AE40D9
:1007A00035003D430234A400414EA551414C25681B
:1007B000D4432E0026404F68FF0301D515432E0079
:1007C0003C4D2E606D682E0026404F68BF0301D55A
:1007D00015432E00374D6E60AD682E0026404F68E1
:1007E000FF0201D515432E00324DAE60ED682C405E
:1007F0004E68B60201D52A4314002E4AD460013354
:100800000A681400DC4050D001249C402240F6D0FD
:1008100003254E683540013D012D99D903244D68CB
:100820002C40032C09D0C4685E000325B540AC43BE
:1008300025008C68B4402C43C46003244D682C40D0
:10084000022C99D005685E0003242700B740BD4301
:100850004F683C40B4402C430460C024A4024D685F
:100860002542CCD0144DAE6901242643AE61AD695A
:100870002C400194019C9C08A51CAD000C4EAF5966
:1008800003251D40AD000F26AE40B7439026F60568
:10089000B04283D0094EB04205D0094EB04200D1DB
:1008A0007AE705267BE7012679E703B0F0BDC0466D
:1008B0000000014000040140001002400004004814
:1008C000000800487047000010B5054B5B691842EE
:1008D00000D110BD024B5861FFF7F4FFF9E7C046A5
:1008E0000004014070B582B0041E00D132E20368FA
:1008F000DB0726D5AE4B5A680C231340042B18D0C7
:10090000AB4B5A680C231340082B0ED06368012BA5
:100910003CD0002B51D1A64B1A68A6490A401A6058
:100920001A68A5490A401A6036E0A14B5B68DB03F0
:10093000ECD59F4B1B689B0303D56368002B00D14C
:100940000BE223689B0773D5994B5B680C221A4214
:100950005DD0974B5A680C231340082B53D0E368A3
:10096000002B00D186E0924A136801210B431360EB
:10097000FFF778FE05008E4B1B689B0771D4FFF7CD
:1009800071FE401B0228F6D90320E4E1884A116871
:1009900080235B020B4313606368002B25D0FFF7B5
:1009A00061FE0500824B1B689B03CAD4FFF75AFE09
:1009B000401B6428F6D90320CDE1052B09D07C4BE0
:1009C0001A687C490A401A601A687B490A401A6012
:1009D000E2E7774B19688022D2020A431A6019684D
:1009E000802252020A431A60D6E7FFF73BFE050059
:1009F0006F4B1B689B03A4D5FFF734FE401B642894
:100A0000F6D90320A7E16A4B5B68DB03A7D4684BE8
:100A10001B689B0704D5E368012B01D001209AE1F4
:100A200063490B68F82293432269D20013430B6099
:100A300023681B0744D5E369002B2ED05C4A536A18
:100A400001210B435362FFF70DFE0500584B5B6A13
:100A50009B0735D4FFF706FE401B0228F6D903207A
:100A600079E153490B68F82293432269D20013437A
:100A70000B60DDE74E4A136801218B431360FFF7DB
:100A8000F1FD05004A4B1B689B07D1D5FFF7EAFD36
:100A9000401B0228F6D903205DE1454A536A012133
:100AA0008B435362FFF7DEFD0500414B5B6A9B07FA
:100AB00006D5FFF7D7FD401B0228F6D903204AE1EF
:100AC00023685B0700D47FE0394BDB69DB001DD472
:100AD000374AD169802040050143D161D369034081
:100AE0000193019B0125354B1B68DB0510D5A368DD
:100AF000012B21D0002B36D12D4B1A6A01218A43BC
:100B00001A621A6A03318A431A621AE00025EAE778
:100B10002A4A116880235B000B431360FFF7A2FD94
:100B20000600264B1B68DB05E1D4FFF79BFD801B0D
:100B30006428F6D903200EE11D4A136A01210B43F4
:100B40001362A368002B24D0FFF78CFD0600184B1E
:100B50001B6A9B0736D4FFF785FD801B184B984214
:100B6000F5D90320F7E0052B09D0114B1A6A0121B2
:100B70008A431A621A6A03318A431A62E1E70C4B0C
:100B80001A6A04210A431A621A6A03390A431A626A
:100B9000D7E7FFF767FD0600054B1B6A9B0711D5DA
:100BA000FFF760FD801B064B9842F5D90320D2E089
:100BB00000100240FFFFFEFFFFFFFBFF0070004040
:100BC00088130000012D33D02368DB0610D563693C
:100BD000012B33D0053351D1644A536B04218B432D
:100BE0005363536BF4318B43A169C9000B435363C7
:100BF000236A002B00D1B2E05C4A51680C220A4003
:100C0000082A00D18AE0022B4FD0584A136858496D
:100C10000B401360FFF726FD0400544B1B689B013B
:100C20007AD5FFF71FFD001B0228F6D9032092E0BA
:100C30004E4AD3694F490B40D361C5E74B4B5A6BC2
:100C400004210A435A635A6B03390A435A63FFF774
:100C500009FD0500454B5B6B9B0706D4FFF702FDC2
:100C6000401B0228F6D9032075E040494B6BF8225F
:100C70009343A269D20013434B63B9E73B4B5A6BD2
:100C800004210A435A635A6B03398A435A63FFF7B4
:100C9000E9FC0500354B5B6B9B07A9D5FFF7E2FC30
:100CA000401B0228F6D9032055E0304A136830492A
:100CB0000B401360FFF7D6FC05002C4B1B689B0113
:100CC00006D5FFF7CFFC401B0228F6D9032042E0EF
:100CD000264BDA6A0F218A43E16A0A43DA625A68CC
:100CE00025490A40A16A606A01430A435A601968AB
:100CF000802252040A431A60FFF7B4FC04001B4B25
:100D00001B689B0106D4FFF7ADFC001B0228F6D937
:100D1000032020E000201EE000201CE0012B20D05A
:100D2000124B5A68D96A80235B021340606A83427F
:100D300001D001200FE00F230B40E16A8B4201D06C
:100D4000012008E0F0239B031A40A36A9A420AD0CC
:100D5000012000E0012002B070BD0120FBE700206F
:100D6000F9E70120F7E70020F5E7C0460010024050
:100D7000FFFFFFFEFFFFFFEFFFFFC2FF30B589B0AF
:100D800004AA174B180032C832C2110002680A6068
:100D90006A46103313CB13C21B681360114B5A6899
:100DA0000C231340082B19D1910C0733194004A8C8
:100DB000445C0C49C96A0B406946C95CD30308D43A
:100DC00063011B1B9801C01AC0000419200209B05E
:100DD00030BD0548FFF798F96043F8E70248F6E7A9
:100DE0004C1E00080010024000127A0070B504008A
:100DF0000D00002800D181E0424B1A680123134006
:100E00008B420BD23F490B68012293432B430B606B
:100E10000B681A40AA4201D0012070E023689A07AB
:100E20000ED55B0705D5384A5168E023DB000B433C
:100E30005360354A5368F0218B43A1680B435360DC
:100E40002368DB072DD56368012B1ED0022B22D02F
:100E50002D4A1268920753D52B494A6803208243D2
:100E600013434B60FFF7FEFB0600274B5B680C2229
:100E70001A4063689B009A4213D0FFF7F3FB801B74
:100E8000224B9842F1D9032039E01F4A126892039D
:100E9000E2D4012033E01C4A12689201DCD4012024
:100EA0002DE0184B1A6801231340AB420BD91549AA
:100EB0000B68012293432B430B600B681A40AA4234
:100EC00001D001201BE023685B0706D50E4A53685A
:100ED0000F490B40E1680B435360FFF74FFF0A4B8C
:100EE0005A6812090F2313400A4AD35CD8400A4BB0
:100EF00018600020FFF774FB002000E0012070BDA7
:100F00000120FCE70020024000100240881300008E
:100F1000FFF8FFFF341E000800000020014B186896
:100F20007047C0460000002010B5FFF7F7FF044BE4
:100F30005A68120A07231340024AD35CD84010BDF6
:100F400000100240441E000870B582B0040003681F
:100F5000DB0335D53C4BDB69DB0048D43A4AD16929
:100F6000802040050143D161D36903400193019B77
:100F70000125364B1B68DB053BD5334B1B6AC02272
:100F80009200134013D061680A409A420FD02E4B52
:100F9000186A2F4A02401E6A8021490231431962B1
:100FA000196A2C4E314019621A62C30735D4264A99
:100FB000136A27490B4061680B431362012D3BD034
:100FC0002368DB0706D5204A136B03218B43A168F6
:100FD0000B43136323689B0633D51B4A136B102105
:100FE0008B43E1680B431363002002B070BD002502
:100FF000BFE7164A116880235B000B431360FFF7BD
:1010000031FB0600114B1B68DB05B6D4FFF72AFB4A
:10101000801B6428F6D90320E7E7FFF723FB0600CF
:10102000094B1B6A9B07C2D4FFF71CFB801B0A4BB2
:101030009842F5D90320D8E7D36908490B40D3611A
:10104000BEE70020D1E7C04600100240007000401B
:10105000FFFCFFFFFFFFFEFF88130000FFFFFFEF15
:1010600010B5040083680269134342691343C269DF
:10107000134301680A684948024013430B60226821
:10108000536847490B40E1680B435360226AA369E8
:101090001A4321688B684348034013438B60424BDB
:1010A0001A6B03231340012B17D0002B05D0022B02
:1010B00015D0032B15D0102300E00023802212024C
:1010C000E16991420FD0022B56D03BD9042B55D069
:1010D000082B5CD1802000023AE00423EEE70823CD
:1010E000ECE70223EAE7022B2AD006D9042B24D00E
:1010F000082B46D18020000205E0002B41D1FFF7EC
:1011000013FF00283FD0400063685B08C018616887
:10111000FEF7FAFF83B20004000C01001039234AE5
:10112000914232D80F2293431A00400807231840F7
:1011300010432368D86000201AE0FFF71FFEE0E7A5
:101140001B48E0E7002B22D1FFF7EEFE002820D05D
:1011500063685B0818186168FEF7D6FF0004000C8E
:101160000200103A114B9A4215D82368D86000202B
:1011700000236366A36610BD0D48E9E7FFF7FEFD97
:10118000E4E70120F4E70020F2E70120F0E7012086
:10119000EEE70020ECE70120EAE7C046F369FFFF35
:1011A000FFCFFFFFFFF4FFFF00100240EFFF000042
:1011B00000127A00436ADB0706D5026853682C499F
:1011C0000B40816A0B435360436A9B0706D5026854
:1011D000536828490B40C16A0B435360436A5B075D
:1011E00006D50268536824490B40016B0B435360DA
:1011F000436A1B0706D50268536820490B40416BC0
:101200000B435360436ADB0606D5026893681C49AA
:101210000B40816B0B439360436A9B0606D50268C3
:10122000936818490B40C16B0B439360436A5B069C
:101230000BD50268536814490B40016C0B43536093
:1012400080235B03026C9A420AD0436A1B0606D5D0
:10125000026853680D490B40816C0B435360704723
:10126000026853680A490B40416C0B435360ECE73A
:10127000FFFFFDFFFFFFFEFFFFFFFBFFFF7FFFFF05
:10128000FFEFFFFFFFDFFFFFFFFFEFFFFFFFF7FFB6
:10129000FFFF9FFFF0B5C64600B505000C00170024
:1012A0009846069E2B68DB6923401B1B5A4253411C
:1012B000BB4251D1731CF5D0FFF7D4F94346C01A95
:1012C000B0422BD8002E29D02B681A685207E9D5D6
:1012D000DA691205E6D5802212011A62EFF3108056
:1012E000012282F3108829680B681D4C23400B6093
:1012F00080F31088EFF3108082F3108829688B68E0
:1013000093438B6080F310882023AB67EB677F32B9
:10131000AB5054330022EA5403201EE0EFF3108058
:10132000012282F3108829680B680D4C23400B6062
:1013300080F31088EFF3108082F3108829688B689F
:1013400093438B6080F310882023AB67EB675433A3
:101350000022EA54032000E0002004BC9046F0BDC7
:101360005FFEFFFFF0B585B004000E0017001D0002
:10137000836F202B60D1002961D0002A61D08023A7
:101380005B0182689A421CD07423E35C012B5AD023
:1013900074230122E2540C330022E2505F3BA36726
:1013A000FFF760F903905023E7520233E75280239E
:1013B0005B01A2689A420BD0002774230022E254FA
:1013C00019E00369002BDFD1CB07DDD5012034E024
:1013D0002369002B01D00027EFE737000026ECE758
:1013E0003B88DB05DB0D2268138502375222A35AA6
:1013F000013B9BB2A3525223E35A9BB2002B0FD066
:101400000095039B002280212000FFF743FF002866
:101410001BD1002EE4D03378226813850136E5E72E
:101420000095039B002240212000FFF733FF002896
:101430000DD12023A36700E0022005B0F0BD0120FC
:10144000FBE70120F9E70220F7E70320F5E7032097
:10145000F3E7000030B583B0040080230022C250BF
:10146000FFF700F9050023681B681B070DD42368EC
:101470001B685B0716D42023A367E367002323665A
:101480007422A354002003B030BD80210C4B009384
:101490000300002289032000FFF7FCFE0028E6D0AD
:1014A0000320F0E78021064B00932B000022C903A4
:1014B0002000FFF7EFFE0028DDD00320E3E7C04661
:1014C000FFFFFF0110B5041E2ED0836F002B21D02B
:1014D0002423A3672268136801218B431360200033
:1014E000FFF7BEFD012814D0636A002B18D12268D3
:1014F00053680E490B405360226893682A218B433E
:1015000093602268136829390B4313602000FFF7AA
:10151000A1FF10BD74330022C254FEF773FFD7E75A
:101520002000FFF747FEE2E70120F2E7FFB7FFFFE9
:101530000D4885460D480E490E4A002302E0D45856
:10154000C4500433C4188C42F9D30B4A0B4C00230B
:1015500001E013600432A242FBD3FFF73FF800F032
:1015600017F8FEF703FFFEE7001000200000002040
:1015700070000020B01E0008700000200C02002047
:10158000FEE70000014B18687047C0460C000020C1
:1015900070B500260C4D0D4C641BA410A64209D159
:1015A000002600F03BFC0A4D0A4C641BA410A64226
:1015B00005D170BDB300EB5898470136EEE7B30094
:1015C000EB5898470136F2E7A81E0008A81E00084D
:1015D000A81E0008AC1E000803001218934200D198
:1015E000704719700133F9E70CB430B5164B9DB054
:1015F0000C1E1D6808DA8B2301202B6040421DB0B1
:1016000030BC08BC02B01847822302A99B008B8122
:101610000023029008619C4200D0631E8B604B61E6
:1016200001235B42CB81209A21AB2800019300F07B
:101630006FF8431C01DA8B232B60002CDFD00023D2
:10164000029A1370DBE7C0460C000020F0B58E68EC
:1016500085B007000C00039201939E423CD8902372
:101660008A89DB001A4234D00325096923685B1A92
:101670000293636902985D43EB0F5D19019B6D1046
:1016800001331B18AB4200D91D00530532D5290088
:10169000380000F023FB061E09D10C233B604023D9
:1016A0000120A28940421343A38105B0F0BD029AF4
:1016B000216900F0ACFAA389144A1A40802313432D
:1016C000A381029B2661F61826606561019EED1AD2
:1016D000A560019B9E4200D9019E320003992068BB
:1016E00000F09EFAA36800209B1BA36023689E194C
:1016F0002660DAE72A00380000F04EFB061EE0D133
:101700002169380000F0A0FAC7E7C0467FFBFFFF61
:10171000F0B5A1B003901D008B890F0016001B06C9
:1017200011D50B69002B0ED1402100F0D7FA38609B
:101730003861002805D10C23039A0138136021B0C9
:10174000F0BD40237B61002308AC636120336376E6
:101750001033A376079535002B78002B01D0252B6D
:1017600046D1AB1B05930CD0320039000398FFF72C
:101770006DFF431C00D1AEE06269059B9446634453
:1017800063612B78002B00D1A5E001220023524297
:10179000626004A9543252186E1C2360E360A36097
:1017A0001370A36531780522534800F025FA751CA3
:1017B00000281FD12268D30604D5532304A95B183F
:1017C00020211970130704D5532304A95B182B217A
:1017D000197033782A2B16D0350000210A20E368CF
:1017E0002A786E1C303A092A4ED9002918D010E008
:1017F0000135B1E7404B2268C01A012383401343EF
:1018000023602E00CEE7079B191D1B680791002B54
:1018100001DB0B9304E05B42E3600223134323608C
:101820002B782E2B0AD16B782A2B35D1079B0235CA
:101830001A1D1B680792002B2BDB09932F4E29786A
:101840000322300000F0D8F9002806D04023801B86
:1018500083402268013513432360297806222848F3
:101860006E1C217600F0C8F900283CD0254B002BD7
:1018700025D10722079B07339343083307936369F6
:10188000049A9B18636166E7434301219B18350066
:10189000A6E701235B42D0E700230A201A000135A6
:1018A000636029786E1C3039092903D9002BC5D013
:1018B0000992C3E74243012352183500F1E707AB11
:1018C00000933A00104B2100039800E000BF049001
:1018D000049B0133D3D1BB890D985B0600D42EE75E
:1018E000012040422BE707AB00933A00064B210052
:1018F000039800F079F8EAE7741E00087A1E0008E1
:101900007E1E0008000000004D160008F7B5150007
:1019100001938A680B6900900C00934200DA13006F
:1019200022002B6043321278002A01D001332B6051
:1019300023689B0602D52B6802332B600627236899
:101940001F4027D0230043331B785A1E934122683F
:10195000920630D42200019943320098089EB04785
:10196000431C25D0062320682A68E168034000252F
:10197000042B03D18D1AEB43DB171D40A3682269AA
:10198000934201DD9B1AED180027BD4220D10020B3
:1019900010E00137E3682A689B1ABB42D2DD2200BF
:1019A0000123193201990098089EB047431CF0D1D9
:1019B00001204042FEBD3020E11843310870210073
:1019C0005A1C45310978A218433202331170C1E71D
:1019D000220001231A3201990098089EB047431C47
:1019E000E6D00137D1E70000F0B589B004920A00D3
:1019F00043320593039002920A7E0C000E9B6E2ADE
:101A000000D186E01FD8632A33D008D8002A00D13D
:101A10008CE0582A4DD0250042352A7030E0642AE7
:101A200001D0692AF7D1196825680A1D280629D529
:101A300008681A60002803DA2D23029A40421370C6
:101A40006B4E0A274FE0732A74D008D86F2A1FD034
:101A5000702AE0D1202209680A43226003E0752A37
:101A600016D0782AD7D12200782145321170614EE4
:101A700022E025001A684235111D196013682B7089
:101A8000012365E008681A606906D3D500B2D1E782
:101A900019682568081D186008682E0605D5544E7B
:101AA00008276F2A1BD00A2719E06D06F7D580B2E8
:101AB000F5E745314E4E0A7018682268011D00682E
:101AC0001960150621D5D30702D520231A432260B9
:101AD0001027002803D1202322689A432260230084
:101AE000002243331A706368A360002B58DB042282
:101AF000216891432160002854D1029D002B5AD0C7
:101B00002500337842352B7055E05506DBD580B281
:101B1000D9E71A680D68101D4969186013682E0608
:101B200001D5196002E06D06FBD519800023029DE6
:101B300023614FE01A68111D196015680021626861
:101B4000280000F059F8002801D0401B606063684D
:101B500023610023029A13703CE023692A00049950
:101B60000398059DA847431C3ED023689B0715D4C6
:101B7000079BE068984239DA180037E02200012319
:101B8000193204990398059EB047431C2CD00135A7
:101B9000E368079A9B1AAB42F0DCE9E70025F7E718
:101BA0000028ADD0029D3900FEF734FB735C013D87
:101BB0002B700028F7D1082F09D12368DB0706D541
:101BC00063682269934202DC3023013D2B70029B43
:101BD0005B1B2361059B07AA00932100049B0398CC
:101BE000FFF794FE431CB8D10120404209B0F0BD7C
:101BF000851E0008961E0008C9B28218904201D1C5
:101C00000020704703788B42FBD00130F6E70023B9
:101C100010B59A4200D110BDCC5CC4540133F8E732
:101C200010B5884202D98B18984203D3002307E0ED
:101C30008B5C8354013AFBD210BDCC5CC45401339D
:101C40009A42FAD1F8E7000070B50500002910D0DB
:101C50000C1F2368002B00DAE418280000F0D4F8E9
:101C60001D4A1368002B05D163601460280000F042
:101C7000CCF870BDA34209D9216860188342F3D122
:101C800018685B6841182160EEE713005A68002A63
:101C900001D0A242F9D919685818A0420BD1206886
:101CA0000918581819608242E0D11068526841182A
:101CB00019605A60DAE7A04202D90C232B60D5E7FD
:101CC00021686018824203D110685268411821606F
:101CD00062605C60CAE7C0469C000020032370B5C8
:101CE000CD1C9D43083506000C2D1ED20C25A942A3
:101CF0001DD8300000F088F8254A1468210000291A
:101D000019D1244C2368002B03D1300000F06AF86D
:101D100020602900300000F065F8431C2BD10C2313
:101D20003000336000F071F803E0002DDFDA0C239F
:101D30003360002070BD0B685B1B19D40B2B03D9DB
:101D40000B60CC18256003E04B688C420DD113600A
:101D5000300000F05AF8200007220B30231D90437A
:101D6000C31AE7D05A42E250E4E763600C00EFE7A1
:101D70000C004968C3E70323C41C9C43A042E1D084
:101D8000211A300000F02EF8431CDBD1C7E7C04613
:101D90009C000020A0000020F8B507000D001600F0
:101DA000002905D11100FFF799FF04002000F8BDBC
:101DB000002A03D1FFF748FF3400F7E700F026F8C8
:101DC0002C00B042F2D231003800FFF787FF041E2A
:101DD000ECD029003200FFF71AFF29003800FFF786
:101DE00033FFE3E7002370B5064C050008002360CD
:101DF000FEF7D6FB431C03D12368002B00D02B60D9
:101E000070BDC04608020020704770470B1F1B685A
:101E1000181F002B01DA0B58C0187047F8B5C046E0
:101E2000F8BC08BC9E467047F8B5C046F8BC08BC74
:041E30009E46704713
:101E34000000000000000000010203040607080976
:101E44000000000001020304020304050607080958
:101E54000A0B0C0D0E0F10100102030405060708EF
:101E6400090A0B0C0D0E0F1025640A0D000000006A
:101E7400232D302B2000686C4C006566674546476F
:101E840000303132333435363738394142434445F2
:101E94004600303132333435363738396162636461
:041EA400656600006F
:041EA800E900000845
:041EAC00C100000869
:101EB00000127A0001000000040000001000002061
:101EC0000000000000000000000000000000000012
:101ED0000000000000000000000000000000000002
:101EE00000000000000000000000000000000000F2
:101EF00000000000000000000000000000000000E2
:101F000000000000000000000000000000000000D1
:101F100000000000000000000000000000000000C1
:0400000508001531A9
:00000001FF
